{
	"_format": "hh-sol-artifact-1",
	"contractName": "AnimeVote",
	"sourceName": "contracts/AnimeVote.sol",
	"abi": [
		{
			"inputs": [
				{
					"internalType": "string",
					"name": "nftName",
					"type": "string"
				},
				{
					"internalType": "string",
					"name": "nftSymbol",
					"type": "string"
				}
			],
			"stateMutability": "nonpayable",
			"type": "constructor"
		},
		{
			"anonymous": false,
			"inputs": [
				{
					"indexed": true,
					"internalType": "address",
					"name": "owner",
					"type": "address"
				},
				{
					"indexed": true,
					"internalType": "address",
					"name": "approved",
					"type": "address"
				},
				{
					"indexed": true,
					"internalType": "uint256",
					"name": "tokenId",
					"type": "uint256"
				}
			],
			"name": "Approval",
			"type": "event"
		},
		{
			"anonymous": false,
			"inputs": [
				{
					"indexed": true,
					"internalType": "address",
					"name": "owner",
					"type": "address"
				},
				{
					"indexed": true,
					"internalType": "address",
					"name": "operator",
					"type": "address"
				},
				{
					"indexed": false,
					"internalType": "bool",
					"name": "approved",
					"type": "bool"
				}
			],
			"name": "ApprovalForAll",
			"type": "event"
		},
		{
			"anonymous": false,
			"inputs": [
				{
					"indexed": true,
					"internalType": "address",
					"name": "from",
					"type": "address"
				},
				{
					"indexed": true,
					"internalType": "address",
					"name": "to",
					"type": "address"
				},
				{
					"indexed": true,
					"internalType": "uint256",
					"name": "tokenId",
					"type": "uint256"
				}
			],
			"name": "Transfer",
			"type": "event"
		},
		{
			"inputs": [
				{
					"internalType": "uint256",
					"name": "",
					"type": "uint256"
				}
			],
			"name": "animeDatas",
			"outputs": [
				{
					"internalType": "string",
					"name": "animeTitle",
					"type": "string"
				},
				{
					"internalType": "string",
					"name": "description",
					"type": "string"
				},
				{
					"internalType": "string",
					"name": "imageURL",
					"type": "string"
				},
				{
					"internalType": "address",
					"name": "register",
					"type": "address"
				}
			],
			"stateMutability": "view",
			"type": "function"
		},
		{
			"inputs": [
				{
					"internalType": "uint256",
					"name": "",
					"type": "uint256"
				},
				{
					"internalType": "uint256",
					"name": "",
					"type": "uint256"
				}
			],
			"name": "animeIdToTokens",
			"outputs": [
				{
					"internalType": "uint256",
					"name": "",
					"type": "uint256"
				}
			],
			"stateMutability": "view",
			"type": "function"
		},
		{
			"inputs": [
				{
					"internalType": "address",
					"name": "to",
					"type": "address"
				},
				{
					"internalType": "uint256",
					"name": "tokenId",
					"type": "uint256"
				}
			],
			"name": "approve",
			"outputs": [],
			"stateMutability": "nonpayable",
			"type": "function"
		},
		{
			"inputs": [
				{
					"internalType": "address",
					"name": "owner",
					"type": "address"
				}
			],
			"name": "balanceOf",
			"outputs": [
				{
					"internalType": "uint256",
					"name": "",
					"type": "uint256"
				}
			],
			"stateMutability": "view",
			"type": "function"
		},
		{
			"inputs": [],
			"name": "beCitizen",
			"outputs": [],
			"stateMutability": "nonpayable",
			"type": "function"
		},
		{
			"inputs": [
				{
					"internalType": "uint256",
					"name": "tokenId",
					"type": "uint256"
				}
			],
			"name": "getApproved",
			"outputs": [
				{
					"internalType": "address",
					"name": "",
					"type": "address"
				}
			],
			"stateMutability": "view",
			"type": "function"
		},
		{
			"inputs": [
				{
					"internalType": "address",
					"name": "owner",
					"type": "address"
				},
				{
					"internalType": "address",
					"name": "operator",
					"type": "address"
				}
			],
			"name": "isApprovedForAll",
			"outputs": [
				{
					"internalType": "bool",
					"name": "",
					"type": "bool"
				}
			],
			"stateMutability": "view",
			"type": "function"
		},
		{
			"inputs": [],
			"name": "name",
			"outputs": [
				{
					"internalType": "string",
					"name": "",
					"type": "string"
				}
			],
			"stateMutability": "view",
			"type": "function"
		},
		{
			"inputs": [
				{
					"internalType": "uint256",
					"name": "",
					"type": "uint256"
				}
			],
			"name": "numberOfVotes",
			"outputs": [
				{
					"internalType": "uint256",
					"name": "",
					"type": "uint256"
				}
			],
			"stateMutability": "view",
			"type": "function"
		},
		{
			"inputs": [
				{
					"internalType": "uint256",
					"name": "tokenId",
					"type": "uint256"
				}
			],
			"name": "ownerOf",
			"outputs": [
				{
					"internalType": "address",
					"name": "",
					"type": "address"
				}
			],
			"stateMutability": "view",
			"type": "function"
		},
		{
			"inputs": [
				{
					"internalType": "uint256",
					"name": "animeId",
					"type": "uint256"
				}
			],
			"name": "readVotes",
			"outputs": [
				{
					"internalType": "uint256",
					"name": "_numberOfVotes",
					"type": "uint256"
				}
			],
			"stateMutability": "view",
			"type": "function"
		},
		{
			"inputs": [
				{
					"internalType": "string",
					"name": "_name",
					"type": "string"
				},
				{
					"internalType": "string",
					"name": "_description",
					"type": "string"
				},
				{
					"internalType": "string",
					"name": "_imageURL",
					"type": "string"
				}
			],
			"name": "registAnime",
			"outputs": [],
			"stateMutability": "nonpayable",
			"type": "function"
		},
		{
			"inputs": [
				{
					"internalType": "address",
					"name": "from",
					"type": "address"
				},
				{
					"internalType": "address",
					"name": "to",
					"type": "address"
				},
				{
					"internalType": "uint256",
					"name": "tokenId",
					"type": "uint256"
				}
			],
			"name": "safeTransferFrom",
			"outputs": [],
			"stateMutability": "nonpayable",
			"type": "function"
		},
		{
			"inputs": [
				{
					"internalType": "address",
					"name": "from",
					"type": "address"
				},
				{
					"internalType": "address",
					"name": "to",
					"type": "address"
				},
				{
					"internalType": "uint256",
					"name": "tokenId",
					"type": "uint256"
				},
				{
					"internalType": "bytes",
					"name": "data",
					"type": "bytes"
				}
			],
			"name": "safeTransferFrom",
			"outputs": [],
			"stateMutability": "nonpayable",
			"type": "function"
		},
		{
			"inputs": [
				{
					"internalType": "address",
					"name": "operator",
					"type": "address"
				},
				{
					"internalType": "bool",
					"name": "approved",
					"type": "bool"
				}
			],
			"name": "setApprovalForAll",
			"outputs": [],
			"stateMutability": "nonpayable",
			"type": "function"
		},
		{
			"inputs": [
				{
					"internalType": "bytes4",
					"name": "interfaceId",
					"type": "bytes4"
				}
			],
			"name": "supportsInterface",
			"outputs": [
				{
					"internalType": "bool",
					"name": "",
					"type": "bool"
				}
			],
			"stateMutability": "view",
			"type": "function"
		},
		{
			"inputs": [],
			"name": "symbol",
			"outputs": [
				{
					"internalType": "string",
					"name": "",
					"type": "string"
				}
			],
			"stateMutability": "view",
			"type": "function"
		},
		{
			"inputs": [
				{
					"internalType": "uint256",
					"name": "",
					"type": "uint256"
				}
			],
			"name": "tokenIdToAnimeId",
			"outputs": [
				{
					"internalType": "uint256",
					"name": "",
					"type": "uint256"
				}
			],
			"stateMutability": "view",
			"type": "function"
		},
		{
			"inputs": [
				{
					"internalType": "uint256",
					"name": "",
					"type": "uint256"
				},
				{
					"internalType": "uint256",
					"name": "",
					"type": "uint256"
				}
			],
			"name": "tokenNumber",
			"outputs": [
				{
					"internalType": "uint256",
					"name": "",
					"type": "uint256"
				}
			],
			"stateMutability": "view",
			"type": "function"
		},
		{
			"inputs": [
				{
					"internalType": "uint256",
					"name": "tokenId",
					"type": "uint256"
				}
			],
			"name": "tokenURI",
			"outputs": [
				{
					"internalType": "string",
					"name": "",
					"type": "string"
				}
			],
			"stateMutability": "view",
			"type": "function"
		},
		{
			"inputs": [
				{
					"internalType": "address",
					"name": "from",
					"type": "address"
				},
				{
					"internalType": "address",
					"name": "to",
					"type": "address"
				},
				{
					"internalType": "uint256",
					"name": "tokenId",
					"type": "uint256"
				}
			],
			"name": "transferFrom",
			"outputs": [],
			"stateMutability": "nonpayable",
			"type": "function"
		},
		{
			"inputs": [
				{
					"internalType": "uint256",
					"name": "animeId",
					"type": "uint256"
				}
			],
			"name": "vote",
			"outputs": [],
			"stateMutability": "nonpayable",
			"type": "function"
		},
		{
			"inputs": [
				{
					"internalType": "address",
					"name": "",
					"type": "address"
				}
			],
			"name": "voters",
			"outputs": [
				{
					"internalType": "bool",
					"name": "voted",
					"type": "bool"
				},
				{
					"internalType": "bool",
					"name": "hasVoteRight",
					"type": "bool"
				}
			],
			"stateMutability": "view",
			"type": "function"
		}
	],
	"bytecode": "0x608060405260006007553480156200001657600080fd5b506040516200365c3803806200365c83398181016040528101906200003c9190620002c7565b81818160009080519060200190620000569291906200007a565b5080600190805190602001906200006f9291906200007a565b5050505050620003b1565b82805462000088906200037b565b90600052602060002090601f016020900481019282620000ac5760008555620000f8565b82601f10620000c757805160ff1916838001178555620000f8565b82800160010185558215620000f8579182015b82811115620000f7578251825591602001919060010190620000da565b5b5090506200010791906200010b565b5090565b5b80821115620001265760008160009055506001016200010c565b5090565b6000604051905090565b600080fd5b600080fd5b600080fd5b600080fd5b6000601f19601f8301169050919050565b7f4e487b7100000000000000000000000000000000000000000000000000000000600052604160045260246000fd5b620001938262000148565b810181811067ffffffffffffffff82111715620001b557620001b462000159565b5b80604052505050565b6000620001ca6200012a565b9050620001d8828262000188565b919050565b600067ffffffffffffffff821115620001fb57620001fa62000159565b5b620002068262000148565b9050602081019050919050565b60005b838110156200023357808201518184015260208101905062000216565b8381111562000243576000848401525b50505050565b6000620002606200025a84620001dd565b620001be565b9050828152602081018484840111156200027f576200027e62000143565b5b6200028c84828562000213565b509392505050565b600082601f830112620002ac57620002ab6200013e565b5b8151620002be84826020860162000249565b91505092915050565b60008060408385031215620002e157620002e062000134565b5b600083015167ffffffffffffffff81111562000302576200030162000139565b5b620003108582860162000294565b925050602083015167ffffffffffffffff81111562000334576200033362000139565b5b620003428582860162000294565b9150509250929050565b7f4e487b7100000000000000000000000000000000000000000000000000000000600052602260045260246000fd5b600060028204905060018216806200039457607f821691505b60208210811415620003ab57620003aa6200034c565b5b50919050565b61329b80620003c16000396000f3fe608060405234801561001057600080fd5b506004361061014d5760003560e01c806351bba237116100c3578063a22cb4651161007c578063a22cb465146103d7578063a3ec138d146103f3578063b88d4fde14610424578063c87b56dd14610440578063e985e9c514610470578063fa0edda5146104a05761014d565b806351bba237146103005780636352211e1461030a57806370a082311461033a57806380ae90491461036a57806395d89b4114610386578063a1713f3b146103a45761014d565b806311fa1cdf1161011557806311fa1cdf1461020857806313ea305f146102385780631fcc81be1461026857806323b872dd1461029857806342842e0e146102b45780634f9a7e60146102d05761014d565b80630121b93f1461015257806301ffc9a71461016e57806306fdde031461019e578063081812fc146101bc578063095ea7b3146101ec575b600080fd5b61016c60048036038101906101679190611f71565b6104d0565b005b61018860048036038101906101839190611ff6565b6106d6565b604051610195919061203e565b60405180910390f35b6101a66107b8565b6040516101b391906120f2565b60405180910390f35b6101d660048036038101906101d19190611f71565b61084a565b6040516101e39190612155565b60405180910390f35b6102066004803603810190610201919061219c565b610890565b005b610222600480360381019061021d9190611f71565b6109a8565b60405161022f91906121eb565b60405180910390f35b610252600480360381019061024d9190612206565b6109c5565b60405161025f91906121eb565b60405180910390f35b610282600480360381019061027d9190611f71565b6109ea565b60405161028f91906121eb565b60405180910390f35b6102b260048036038101906102ad9190612246565b610a02565b005b6102ce60048036038101906102c99190612246565b610a62565b005b6102ea60048036038101906102e59190612206565b610a82565b6040516102f791906121eb565b60405180910390f35b610308610ab3565b005b610324600480360381019061031f9190611f71565b610b10565b6040516103319190612155565b60405180910390f35b610354600480360381019061034f9190612299565b610bc2565b60405161036191906121eb565b60405180910390f35b610384600480360381019061037f91906123fb565b610c7a565b005b61038e610da1565b60405161039b91906120f2565b60405180910390f35b6103be60048036038101906103b99190611f71565b610e33565b6040516103ce94939291906124a2565b60405180910390f35b6103f160048036038101906103ec9190612528565b61101b565b005b61040d60048036038101906104089190612299565b611031565b60405161041b929190612568565b60405180910390f35b61043e60048036038101906104399190612632565b61106f565b005b61045a60048036038101906104559190611f71565b6110d1565b60405161046791906120f2565b60405180910390f35b61048a600480360381019061048591906126b5565b61117d565b604051610497919061203e565b60405180910390f35b6104ba60048036038101906104b59190611f71565b611211565b6040516104c791906121eb565b60405180910390f35b33600c60008273ffffffffffffffffffffffffffffffffffffffff1673ffffffffffffffffffffffffffffffffffffffff16815260200190815260200160002060000160009054906101000a900460ff1615801561057a5750600c60008273ffffffffffffffffffffffffffffffffffffffff1673ffffffffffffffffffffffffffffffffffffffff16815260200190815260200160002060000160019054906101000a900460ff165b61058357600080fd5b610596336105916006611229565b611237565b81600960006105a56006611229565b815260200190815260200160002081905550600a60008381526020019081526020016000206105d46006611229565b9080600181540180825580915050600190039060005260206000200160009091909190915055600a600083815260200190815260200160002080549050600b600061061f6006611229565b815260200190815260200160002060008481526020019081526020016000208190555061064c6006611255565b6001600d600084815260200190815260200160002060008282546106709190612724565b925050819055506001600c60003373ffffffffffffffffffffffffffffffffffffffff1673ffffffffffffffffffffffffffffffffffffffff16815260200190815260200160002060000160006101000a81548160ff0219169083151502179055505050565b60007f80ac58cd000000000000000000000000000000000000000000000000000000007bffffffffffffffffffffffffffffffffffffffffffffffffffffffff1916827bffffffffffffffffffffffffffffffffffffffffffffffffffffffff191614806107a157507f5b5e139f000000000000000000000000000000000000000000000000000000007bffffffffffffffffffffffffffffffffffffffffffffffffffffffff1916827bffffffffffffffffffffffffffffffffffffffffffffffffffffffff1916145b806107b157506107b08261126b565b5b9050919050565b6060600080546107c7906127a9565b80601f01602080910402602001604051908101604052809291908181526020018280546107f3906127a9565b80156108405780601f1061081557610100808354040283529160200191610840565b820191906000526020600020905b81548152906001019060200180831161082357829003601f168201915b5050505050905090565b6000610855826112d5565b6004600083815260200190815260200160002060009054906101000a900473ffffffffffffffffffffffffffffffffffffffff169050919050565b600061089b82610b10565b90508073ffffffffffffffffffffffffffffffffffffffff168373ffffffffffffffffffffffffffffffffffffffff16141561090c576040517f08c379a00000000000000000000000000000000000000000000000000000000081526004016109039061284d565b60405180910390fd5b8073ffffffffffffffffffffffffffffffffffffffff1661092b611320565b73ffffffffffffffffffffffffffffffffffffffff16148061095a575061095981610954611320565b61117d565b5b610999576040517f08c379a0000000000000000000000000000000000000000000000000000000008152600401610990906128df565b60405180910390fd5b6109a38383611328565b505050565b6000600d6000838152602001908152602001600020549050919050565b600b602052816000526040600020602052806000526040600020600091509150505481565b600d6020528060005260406000206000915090505481565b610a13610a0d611320565b826113e1565b610a52576040517f08c379a0000000000000000000000000000000000000000000000000000000008152600401610a4990612971565b60405180910390fd5b610a5d838383611476565b505050565b610a7d8383836040518060200160405280600081525061106f565b505050565b600a6020528160005260406000208181548110610a9e57600080fd5b90600052602060002001600091509150505481565b6001600c60003373ffffffffffffffffffffffffffffffffffffffff1673ffffffffffffffffffffffffffffffffffffffff16815260200190815260200160002060000160016101000a81548160ff021916908315150217905550565b6000806002600084815260200190815260200160002060009054906101000a900473ffffffffffffffffffffffffffffffffffffffff169050600073ffffffffffffffffffffffffffffffffffffffff168173ffffffffffffffffffffffffffffffffffffffff161415610bb9576040517f08c379a0000000000000000000000000000000000000000000000000000000008152600401610bb0906129dd565b60405180910390fd5b80915050919050565b60008073ffffffffffffffffffffffffffffffffffffffff168273ffffffffffffffffffffffffffffffffffffffff161415610c33576040517f08c379a0000000000000000000000000000000000000000000000000000000008152600401610c2a90612a6f565b60405180910390fd5b600360008373ffffffffffffffffffffffffffffffffffffffff1673ffffffffffffffffffffffffffffffffffffffff168152602001908152602001600020549050919050565b60405180608001604052808481526020018381526020018281526020013373ffffffffffffffffffffffffffffffffffffffff168152506008600060075481526020019081526020016000206000820151816000019080519060200190610ce2929190611e84565b506020820151816001019080519060200190610cff929190611e84565b506040820151816002019080519060200190610d1c929190611e84565b5060608201518160030160006101000a81548173ffffffffffffffffffffffffffffffffffffffff021916908373ffffffffffffffffffffffffffffffffffffffff1602179055509050506000600d6000600754815260200190815260200160002081905550600160076000828254610d959190612724565b92505081905550505050565b606060018054610db0906127a9565b80601f0160208091040260200160405190810160405280929190818152602001828054610ddc906127a9565b8015610e295780601f10610dfe57610100808354040283529160200191610e29565b820191906000526020600020905b815481529060010190602001808311610e0c57829003601f168201915b5050505050905090565b6008602052806000526040600020600091509050806000018054610e56906127a9565b80601f0160208091040260200160405190810160405280929190818152602001828054610e82906127a9565b8015610ecf5780601f10610ea457610100808354040283529160200191610ecf565b820191906000526020600020905b815481529060010190602001808311610eb257829003601f168201915b505050505090806001018054610ee4906127a9565b80601f0160208091040260200160405190810160405280929190818152602001828054610f10906127a9565b8015610f5d5780601f10610f3257610100808354040283529160200191610f5d565b820191906000526020600020905b815481529060010190602001808311610f4057829003601f168201915b505050505090806002018054610f72906127a9565b80601f0160208091040260200160405190810160405280929190818152602001828054610f9e906127a9565b8015610feb5780601f10610fc057610100808354040283529160200191610feb565b820191906000526020600020905b815481529060010190602001808311610fce57829003601f168201915b5050505050908060030160009054906101000a900473ffffffffffffffffffffffffffffffffffffffff16905084565b61102d611026611320565b83836116dd565b5050565b600c6020528060005260406000206000915090508060000160009054906101000a900460ff16908060000160019054906101000a900460ff16905082565b61108061107a611320565b836113e1565b6110bf576040517f08c379a00000000000000000000000000000000000000000000000000000000081526004016110b690612971565b60405180910390fd5b6110cb8484848461184a565b50505050565b606060006009600084815260200190815260200160002054905061115660086000838152602001908152602001600020600001600860008481526020019081526020016000206002016008600085815260200190815260200160002060010160405160200161114293929190612c5e565b6040516020818303038152906040526118a6565b6040516020016111669190612d38565b604051602081830303815290604052915050919050565b6000600560008473ffffffffffffffffffffffffffffffffffffffff1673ffffffffffffffffffffffffffffffffffffffff16815260200190815260200160002060008373ffffffffffffffffffffffffffffffffffffffff1673ffffffffffffffffffffffffffffffffffffffff16815260200190815260200160002060009054906101000a900460ff16905092915050565b60096020528060005260406000206000915090505481565b600081600001549050919050565b611251828260405180602001604052806000815250611a1f565b5050565b6001816000016000828254019250508190555050565b60007f01ffc9a7000000000000000000000000000000000000000000000000000000007bffffffffffffffffffffffffffffffffffffffffffffffffffffffff1916827bffffffffffffffffffffffffffffffffffffffffffffffffffffffff1916149050919050565b6112de81611a7a565b61131d576040517f08c379a0000000000000000000000000000000000000000000000000000000008152600401611314906129dd565b60405180910390fd5b50565b600033905090565b816004600083815260200190815260200160002060006101000a81548173ffffffffffffffffffffffffffffffffffffffff021916908373ffffffffffffffffffffffffffffffffffffffff160217905550808273ffffffffffffffffffffffffffffffffffffffff1661139b83610b10565b73ffffffffffffffffffffffffffffffffffffffff167f8c5be1e5ebec7d5bd14f71427d1e84f3dd0314c0f7b2291e5b200ac8c7c3b92560405160405180910390a45050565b6000806113ed83610b10565b90508073ffffffffffffffffffffffffffffffffffffffff168473ffffffffffffffffffffffffffffffffffffffff16148061142f575061142e818561117d565b5b8061146d57508373ffffffffffffffffffffffffffffffffffffffff166114558461084a565b73ffffffffffffffffffffffffffffffffffffffff16145b91505092915050565b8273ffffffffffffffffffffffffffffffffffffffff1661149682610b10565b73ffffffffffffffffffffffffffffffffffffffff16146114ec576040517f08c379a00000000000000000000000000000000000000000000000000000000081526004016114e390612dcc565b60405180910390fd5b600073ffffffffffffffffffffffffffffffffffffffff168273ffffffffffffffffffffffffffffffffffffffff16141561155c576040517f08c379a000000000000000000000000000000000000000000000000000000000815260040161155390612e5e565b60405180910390fd5b611567838383611ae6565b611572600082611328565b6001600360008573ffffffffffffffffffffffffffffffffffffffff1673ffffffffffffffffffffffffffffffffffffffff16815260200190815260200160002060008282546115c29190612e7e565b925050819055506001600360008473ffffffffffffffffffffffffffffffffffffffff1673ffffffffffffffffffffffffffffffffffffffff16815260200190815260200160002060008282546116199190612724565b92505081905550816002600083815260200190815260200160002060006101000a81548173ffffffffffffffffffffffffffffffffffffffff021916908373ffffffffffffffffffffffffffffffffffffffff160217905550808273ffffffffffffffffffffffffffffffffffffffff168473ffffffffffffffffffffffffffffffffffffffff167fddf252ad1be2c89b69c2b068fc378daa952ba7f163c4a11628f55a4df523b3ef60405160405180910390a46116d8838383611aeb565b505050565b8173ffffffffffffffffffffffffffffffffffffffff168373ffffffffffffffffffffffffffffffffffffffff16141561174c576040517f08c379a000000000000000000000000000000000000000000000000000000000815260040161174390612efe565b60405180910390fd5b80600560008573ffffffffffffffffffffffffffffffffffffffff1673ffffffffffffffffffffffffffffffffffffffff16815260200190815260200160002060008473ffffffffffffffffffffffffffffffffffffffff1673ffffffffffffffffffffffffffffffffffffffff16815260200190815260200160002060006101000a81548160ff0219169083151502179055508173ffffffffffffffffffffffffffffffffffffffff168373ffffffffffffffffffffffffffffffffffffffff167f17307eab39ab6107e8899845ad3d59bd9653f200f220920489ca2b5937696c318360405161183d919061203e565b60405180910390a3505050565b611855848484611476565b61186184848484611af0565b6118a0576040517f08c379a000000000000000000000000000000000000000000000000000000000815260040161189790612f90565b60405180910390fd5b50505050565b60606000825114156118c957604051806020016040528060008152509050611a1a565b600060405180606001604052806040815260200161322660409139905060006003600285516118f89190612724565b6119029190612fdf565b600461190e9190613010565b9050600060208261191f9190612724565b67ffffffffffffffff811115611938576119376122d0565b5b6040519080825280601f01601f19166020018201604052801561196a5781602001600182028036833780820191505090505b509050818152600183018586518101602084015b818310156119d9576003830192508251603f8160121c168501518253600182019150603f81600c1c168501518253600182019150603f8160061c168501518253600182019150603f811685015182536001820191505061197e565b6003895106600181146119f35760028114611a0357611a0e565b613d3d60f01b6002830352611a0e565b603d60f81b60018303525b50505050508093505050505b919050565b611a298383611c87565b611a366000848484611af0565b611a75576040517f08c379a0000000000000000000000000000000000000000000000000000000008152600401611a6c90612f90565b60405180910390fd5b505050565b60008073ffffffffffffffffffffffffffffffffffffffff166002600084815260200190815260200160002060009054906101000a900473ffffffffffffffffffffffffffffffffffffffff1673ffffffffffffffffffffffffffffffffffffffff1614159050919050565b505050565b505050565b6000611b118473ffffffffffffffffffffffffffffffffffffffff16611e61565b15611c7a578373ffffffffffffffffffffffffffffffffffffffff1663150b7a02611b3a611320565b8786866040518563ffffffff1660e01b8152600401611b5c94939291906130bf565b602060405180830381600087803b158015611b7657600080fd5b505af1925050508015611ba757506040513d601f19601f82011682018060405250810190611ba49190613120565b60015b611c2a573d8060008114611bd7576040519150601f19603f3d011682016040523d82523d6000602084013e611bdc565b606091505b50600081511415611c22576040517f08c379a0000000000000000000000000000000000000000000000000000000008152600401611c1990612f90565b60405180910390fd5b805181602001fd5b63150b7a0260e01b7bffffffffffffffffffffffffffffffffffffffffffffffffffffffff1916817bffffffffffffffffffffffffffffffffffffffffffffffffffffffff191614915050611c7f565b600190505b949350505050565b600073ffffffffffffffffffffffffffffffffffffffff168273ffffffffffffffffffffffffffffffffffffffff161415611cf7576040517f08c379a0000000000000000000000000000000000000000000000000000000008152600401611cee90613199565b60405180910390fd5b611d0081611a7a565b15611d40576040517f08c379a0000000000000000000000000000000000000000000000000000000008152600401611d3790613205565b60405180910390fd5b611d4c60008383611ae6565b6001600360008473ffffffffffffffffffffffffffffffffffffffff1673ffffffffffffffffffffffffffffffffffffffff1681526020019081526020016000206000828254611d9c9190612724565b92505081905550816002600083815260200190815260200160002060006101000a81548173ffffffffffffffffffffffffffffffffffffffff021916908373ffffffffffffffffffffffffffffffffffffffff160217905550808273ffffffffffffffffffffffffffffffffffffffff16600073ffffffffffffffffffffffffffffffffffffffff167fddf252ad1be2c89b69c2b068fc378daa952ba7f163c4a11628f55a4df523b3ef60405160405180910390a4611e5d60008383611aeb565b5050565b6000808273ffffffffffffffffffffffffffffffffffffffff163b119050919050565b828054611e90906127a9565b90600052602060002090601f016020900481019282611eb25760008555611ef9565b82601f10611ecb57805160ff1916838001178555611ef9565b82800160010185558215611ef9579182015b82811115611ef8578251825591602001919060010190611edd565b5b509050611f069190611f0a565b5090565b5b80821115611f23576000816000905550600101611f0b565b5090565b6000604051905090565b600080fd5b600080fd5b6000819050919050565b611f4e81611f3b565b8114611f5957600080fd5b50565b600081359050611f6b81611f45565b92915050565b600060208284031215611f8757611f86611f31565b5b6000611f9584828501611f5c565b91505092915050565b60007fffffffff0000000000000000000000000000000000000000000000000000000082169050919050565b611fd381611f9e565b8114611fde57600080fd5b50565b600081359050611ff081611fca565b92915050565b60006020828403121561200c5761200b611f31565b5b600061201a84828501611fe1565b91505092915050565b60008115159050919050565b61203881612023565b82525050565b6000602082019050612053600083018461202f565b92915050565b600081519050919050565b600082825260208201905092915050565b60005b83811015612093578082015181840152602081019050612078565b838111156120a2576000848401525b50505050565b6000601f19601f8301169050919050565b60006120c482612059565b6120ce8185612064565b93506120de818560208601612075565b6120e7816120a8565b840191505092915050565b6000602082019050818103600083015261210c81846120b9565b905092915050565b600073ffffffffffffffffffffffffffffffffffffffff82169050919050565b600061213f82612114565b9050919050565b61214f81612134565b82525050565b600060208201905061216a6000830184612146565b92915050565b61217981612134565b811461218457600080fd5b50565b60008135905061219681612170565b92915050565b600080604083850312156121b3576121b2611f31565b5b60006121c185828601612187565b92505060206121d285828601611f5c565b9150509250929050565b6121e581611f3b565b82525050565b600060208201905061220060008301846121dc565b92915050565b6000806040838503121561221d5761221c611f31565b5b600061222b85828601611f5c565b925050602061223c85828601611f5c565b9150509250929050565b60008060006060848603121561225f5761225e611f31565b5b600061226d86828701612187565b935050602061227e86828701612187565b925050604061228f86828701611f5c565b9150509250925092565b6000602082840312156122af576122ae611f31565b5b60006122bd84828501612187565b91505092915050565b600080fd5b600080fd5b7f4e487b7100000000000000000000000000000000000000000000000000000000600052604160045260246000fd5b612308826120a8565b810181811067ffffffffffffffff82111715612327576123266122d0565b5b80604052505050565b600061233a611f27565b905061234682826122ff565b919050565b600067ffffffffffffffff821115612366576123656122d0565b5b61236f826120a8565b9050602081019050919050565b82818337600083830152505050565b600061239e6123998461234b565b612330565b9050828152602081018484840111156123ba576123b96122cb565b5b6123c584828561237c565b509392505050565b600082601f8301126123e2576123e16122c6565b5b81356123f284826020860161238b565b91505092915050565b60008060006060848603121561241457612413611f31565b5b600084013567ffffffffffffffff81111561243257612431611f36565b5b61243e868287016123cd565b935050602084013567ffffffffffffffff81111561245f5761245e611f36565b5b61246b868287016123cd565b925050604084013567ffffffffffffffff81111561248c5761248b611f36565b5b612498868287016123cd565b9150509250925092565b600060808201905081810360008301526124bc81876120b9565b905081810360208301526124d081866120b9565b905081810360408301526124e481856120b9565b90506124f36060830184612146565b95945050505050565b61250581612023565b811461251057600080fd5b50565b600081359050612522816124fc565b92915050565b6000806040838503121561253f5761253e611f31565b5b600061254d85828601612187565b925050602061255e85828601612513565b9150509250929050565b600060408201905061257d600083018561202f565b61258a602083018461202f565b9392505050565b600067ffffffffffffffff8211156125ac576125ab6122d0565b5b6125b5826120a8565b9050602081019050919050565b60006125d56125d084612591565b612330565b9050828152602081018484840111156125f1576125f06122cb565b5b6125fc84828561237c565b509392505050565b600082601f830112612619576126186122c6565b5b81356126298482602086016125c2565b91505092915050565b6000806000806080858703121561264c5761264b611f31565b5b600061265a87828801612187565b945050602061266b87828801612187565b935050604061267c87828801611f5c565b925050606085013567ffffffffffffffff81111561269d5761269c611f36565b5b6126a987828801612604565b91505092959194509250565b600080604083850312156126cc576126cb611f31565b5b60006126da85828601612187565b92505060206126eb85828601612187565b9150509250929050565b7f4e487b7100000000000000000000000000000000000000000000000000000000600052601160045260246000fd5b600061272f82611f3b565b915061273a83611f3b565b9250827fffffffffffffffffffffffffffffffffffffffffffffffffffffffffffffffff0382111561276f5761276e6126f5565b5b828201905092915050565b7f4e487b7100000000000000000000000000000000000000000000000000000000600052602260045260246000fd5b600060028204905060018216806127c157607f821691505b602082108114156127d5576127d461277a565b5b50919050565b7f4552433732313a20617070726f76616c20746f2063757272656e74206f776e6560008201527f7200000000000000000000000000000000000000000000000000000000000000602082015250565b6000612837602183612064565b9150612842826127db565b604082019050919050565b600060208201905081810360008301526128668161282a565b9050919050565b7f4552433732313a20617070726f76652063616c6c6572206973206e6f7420746f60008201527f6b656e206f776e6572206e6f7220617070726f76656420666f7220616c6c0000602082015250565b60006128c9603e83612064565b91506128d48261286d565b604082019050919050565b600060208201905081810360008301526128f8816128bc565b9050919050565b7f4552433732313a2063616c6c6572206973206e6f7420746f6b656e206f776e6560008201527f72206e6f7220617070726f766564000000000000000000000000000000000000602082015250565b600061295b602e83612064565b9150612966826128ff565b604082019050919050565b6000602082019050818103600083015261298a8161294e565b9050919050565b7f4552433732313a20696e76616c696420746f6b656e2049440000000000000000600082015250565b60006129c7601883612064565b91506129d282612991565b602082019050919050565b600060208201905081810360008301526129f6816129ba565b9050919050565b7f4552433732313a2061646472657373207a65726f206973206e6f74206120766160008201527f6c6964206f776e65720000000000000000000000000000000000000000000000602082015250565b6000612a59602983612064565b9150612a64826129fd565b604082019050919050565b60006020820190508181036000830152612a8881612a4c565b9050919050565b600081905092915050565b7f7b226e616d65223a220000000000000000000000000000000000000000000000600082015250565b6000612ad0600983612a8f565b9150612adb82612a9a565b600982019050919050565b60008190508160005260206000209050919050565b60008154612b08816127a9565b612b128186612a8f565b94506001821660008114612b2d5760018114612b3e57612b71565b60ff19831686528186019350612b71565b612b4785612ae6565b60005b83811015612b6957815481890152600182019150602081019050612b4a565b838801955050505b50505092915050565b7f222c22696d616765223a22000000000000000000000000000000000000000000600082015250565b6000612bb0600b83612a8f565b9150612bbb82612b7a565b600b82019050919050565b7f222c226465736372697074696f6e223a22000000000000000000000000000000600082015250565b6000612bfc601183612a8f565b9150612c0782612bc6565b601182019050919050565b7f227d000000000000000000000000000000000000000000000000000000000000600082015250565b6000612c48600283612a8f565b9150612c5382612c12565b600282019050919050565b6000612c6982612ac3565b9150612c758286612afb565b9150612c8082612ba3565b9150612c8c8285612afb565b9150612c9782612bef565b9150612ca38284612afb565b9150612cae82612c3b565b9150819050949350505050565b7f646174613a6170706c69636174696f6e2f6a736f6e3b6261736536342c000000600082015250565b6000612cf1601d83612a8f565b9150612cfc82612cbb565b601d82019050919050565b6000612d1282612059565b612d1c8185612a8f565b9350612d2c818560208601612075565b80840191505092915050565b6000612d4382612ce4565b9150612d4f8284612d07565b915081905092915050565b7f4552433732313a207472616e736665722066726f6d20696e636f72726563742060008201527f6f776e6572000000000000000000000000000000000000000000000000000000602082015250565b6000612db6602583612064565b9150612dc182612d5a565b604082019050919050565b60006020820190508181036000830152612de581612da9565b9050919050565b7f4552433732313a207472616e7366657220746f20746865207a65726f2061646460008201527f7265737300000000000000000000000000000000000000000000000000000000602082015250565b6000612e48602483612064565b9150612e5382612dec565b604082019050919050565b60006020820190508181036000830152612e7781612e3b565b9050919050565b6000612e8982611f3b565b9150612e9483611f3b565b925082821015612ea757612ea66126f5565b5b828203905092915050565b7f4552433732313a20617070726f766520746f2063616c6c657200000000000000600082015250565b6000612ee8601983612064565b9150612ef382612eb2565b602082019050919050565b60006020820190508181036000830152612f1781612edb565b9050919050565b7f4552433732313a207472616e7366657220746f206e6f6e20455243373231526560008201527f63656976657220696d706c656d656e7465720000000000000000000000000000602082015250565b6000612f7a603283612064565b9150612f8582612f1e565b604082019050919050565b60006020820190508181036000830152612fa981612f6d565b9050919050565b7f4e487b7100000000000000000000000000000000000000000000000000000000600052601260045260246000fd5b6000612fea82611f3b565b9150612ff583611f3b565b92508261300557613004612fb0565b5b828204905092915050565b600061301b82611f3b565b915061302683611f3b565b9250817fffffffffffffffffffffffffffffffffffffffffffffffffffffffffffffffff048311821515161561305f5761305e6126f5565b5b828202905092915050565b600081519050919050565b600082825260208201905092915050565b60006130918261306a565b61309b8185613075565b93506130ab818560208601612075565b6130b4816120a8565b840191505092915050565b60006080820190506130d46000830187612146565b6130e16020830186612146565b6130ee60408301856121dc565b81810360608301526131008184613086565b905095945050505050565b60008151905061311a81611fca565b92915050565b60006020828403121561313657613135611f31565b5b60006131448482850161310b565b91505092915050565b7f4552433732313a206d696e7420746f20746865207a65726f2061646472657373600082015250565b6000613183602083612064565b915061318e8261314d565b602082019050919050565b600060208201905081810360008301526131b281613176565b9050919050565b7f4552433732313a20746f6b656e20616c7265616479206d696e74656400000000600082015250565b60006131ef601c83612064565b91506131fa826131b9565b602082019050919050565b6000602082019050818103600083015261321e816131e2565b905091905056fe4142434445464748494a4b4c4d4e4f505152535455565758595a6162636465666768696a6b6c6d6e6f707172737475767778797a303132333435363738392b2fa264697066735822122021f9ba0ea0da8af1988c29b08dfbf72eb61d8589901b6f619ed76e83a7ecdeaf64736f6c63430008090033",
	"linkReferences": {},
	"deployedLinkReferences": {}
}